:020000040800F2
:10000000E807002001010008A50F0008390A0008D0
:10001000CB0A0008AF0600083721000800000000E6
:10002000000000000000000000000000C1180008EF
:10003000110700080000000021110008311B000812
:100040001B0100081B0100081B0100081B01000820
:100050001B0100081B0100081B0100081B01000810
:100060001B0100081B0100081B0100081B01000800
:100070001B0100081B0100081B0100081B010008F0
:100080001B010008B30600081B0100081B01000843
:100090001B0100081B0100081B0100081B010008D0
:1000A0001B0100081B0100081B0100081B010008C0
:1000B0001B010008AD1B0008E11B00081B01000824
:1000C0001B0100081B0100081B0100081B010008A0
:1000D0001B010008D11E0008D51E00081B010008E6
:1000E0001B0100081B0100081B010008DFF80CD0F1
:1000F00000F0AAFA0048004725370008E80700206A
:100100000648804706480047FEE7FEE7FEE7FEE7B1
:10011000FEE7FEE7FEE7FEE7FEE7FEE74D1B000811
:10012000ED0000082DE9FE4F81EA030404F00044CD
:1001300021F0004100944FF0000B23F0004350EAFF
:1001400001045ED052EA03045BD0C3F30A54C1F346
:100150000A552C44A4F2F3340194A0FB0254C1F3D9
:10016000130141F48011C3F3130343F4801301FB23
:10017000024400FB034E840A970A44EA815447EA8A
:100180008357A4FB076802958D0A05FB07854FEA94
:10019000932C04FB0C542705029D4FEA065847EAAE
:1001A0001637B5EB08056EEB070C870E920E47EA83
:1001B000811742EA8312A7FB0201B6EB0B0164EB45
:1001C00000042B0D43EA0C335E1844EB1C50DA4656
:1001D0005146E7FB0201C5F313044FEA0B3343EA30
:1001E00014534FEA0432019C43EA0603A4F10C04C1
:1001F0000294009CCDE900B400F092F803B0BDE891
:10020000F08F00200146F9E70EB540F2334102912C
:100210000021CDE900110A460B4600F081F803B039
:1002200000BDC1F30A5210B5C1F3130140F2FF3310
:1002300041F480119A4201DA002010BD40F23343AC
:100240009A42A2F2334203DC524200F04AF810BD57
:10025000904010BD30B50B460146002020220124FD
:1002600009E021FA02F59D4205D303FA02F5491B84
:1002700004FA02F52844151EA2F10102F1DC30BD9A
:100280002DE9F05F0546002092469B4688460646CB
:10029000814640241BE0284641464746224600F05E
:1002A00020F853465A46C01A914110D311461846B9
:1002B000224600F0DBF92D1A67EB01084F46224673
:1002C0000120002100F0D2F917EB00094E41201E59
:1002D000A4F10104DFDC484631462A464346BDE826
:1002E000F09F202A04DB203A21FA02F00021704717
:1002F00021FA02F3D040C2F120029140084319468E
:10030000704710B5141E73F1000408DA401C41F167
:10031000000192185B411A4301D120F0010010BD89
:100320002DE9F04D92469B4611B1B1FA81F202E0FF
:10033000B0FA80F22032904600F098F904460F4659
:1003400040EA0A0041EA0B0153465A46084313D0DB
:10035000114653EA010019D0C8F140025046FFF798
:10036000C0FF05460E4650465946424600F07EF90B
:10037000084305D0012004E020463946BDE8F08D51
:100380000020054346EAE0762C4337430A9863058C
:10039000E40AA0EB08000022FD0A44EA47540A30B0
:1003A00002D500200146E9E7010510196941DDE9A0
:1003B000084500196941BDE8F04DA2E72DE9FE4F5F
:1003C000804681EA0300C00F0C46009021F00041F6
:1003D00023F00045B8EB0200A94105D24046214672
:1003E00090461C460B46024623F00040104347D07F
:1003F000270DC7F30A00C3F30A510290401A019077
:1004000040286BDAC3F3130040F4801B0098924637
:1004100020B10023D2EB030A63EB0B0B0198594682
:10042000C0F14002504600F021F906460D46504604
:100430005946019A00F029F910EB080061410024A7
:1004400087EA115284EAE7731A4340D0009A62B3F4
:10045000019A012A4FEA075215DC001B61EB0201E9
:100460004FF0004202EA0752CDE90042001C41F57C
:10047000801132462B46FFF753FF03B0BDE8F08FE3
:1004800040462146F9E7001B61EB0201001C41F5E3
:10049000801300185B412018A2F5001747EB0301F9
:1004A00040EAD570B6196D4111E06D084FEA360685
:1004B00045EAC0754FEA0752001B61EB0201001CC0
:1004C00041F5801149084FEA300000195141324688
:1004D0002B4603B0BDE8F04FFFF713BF0098012291
:1004E00040000023D0EB020263EBE073009821464A
:1004F0004FEAE074B8EB000061EB0401E9E783F038
:1005000000435BE781F0004158E72DE9F04D81EAB7
:10051000030404F0004B21F0004514464FF0000A9C
:1005200023F0004150EA050220D054EA01021DD018
:10053000C5F30A570246C5F31303C1F31300C1F311
:100540000A5640F4801543F48013A7EB0608101BED
:10055000D64608F2FD3873EB050002D308F1010816
:1005600001E092185B41B8F1000F03DA0020014668
:10057000BDE8F08D00204FF48011064684460EE061
:10058000171B73EB050705D3121B63EB050306432B
:100590004CEA010C49084FEA300092185B4150EADE
:1005A0000107EDD152EA030012D082EA040083EA87
:1005B0000501084305D0101BAB4106D201220023E0
:1005C00006E000224FF0004302E06FF001025310FA
:1005D0001AEB06004CEB085110EB0A0041EB0B0143
:1005E000BDE8F04DFFF78DBEC1F30A52C1F3130110
:1005F00040F2FF3341F480119A4202DA00200146B2
:10060000704740F233439A42A2F2334202DC524234
:10061000FFF767BE00F02AB830B5041E71F1000480
:1006200004DB4FF00044404264EB0101141E73F1FF
:10063000000405DB1C464FF00043524263EB040309
:10064000994208BF904230BD064C074D06E0E06875
:1006500040F0010394E8070098471034AC42F6D309
:10066000FFF748FDFC3800081C390008202A04DB8D
:10067000203A00FA02F1002070479140C2F12003B5
:1006800020FA03F3194390407047202A06DBCB176A
:10069000203A41FA02F043EAE07306E041FA02F33D
:1006A000D040C2F12002914008431946704700BF74
:1006B000FEE710B54FF0007000F014F818B14FF0DD
:1006C000007000F001F810BD00F0805111B1034935
:1006D000086001E0024948607047000004040240DD
:1006E0000000024001460020002201F0805313B1B7
:1006F000054B1A6801E0054B1A6802EA01030BB1C9
:10070000012000E000207047000402400000024089
:1007100070472DE9F0410246002500260020002305
:100720000024002791F803C00CF00F0591F803C0D6
:100730000CF0100CBCF1000F03D091F802C04CEA91
:10074000050591F800C0BCF1000F31D014680020FD
:100750002BE04FF0010C0CFA00F3B1F800C00CEAEA
:1007600003069E4220D183004FF00F0C0CFA03F7D2
:10077000BC4305FA03FC4CEA040491F803C0BCF145
:10078000280F06D14FF0010C0CFA00FCC2F814C07F
:100790000AE091F803C0BCF1480F05D14FF0010CFD
:1007A0000CFA00FCC2F810C0401C0828D1D3146019
:1007B000B1F800C0BCF1FF0F34DD546800202EE01A
:1007C00000F1080C4FF0010808FA0CF3B1F800C072
:1007D0000CEA03069E4221D183004FF00F0C0CFA65
:1007E00003F7BC4305FA03FC4CEA040491F803C088
:1007F000BCF1280F05D100F1080C08FA0CF8C2F87A
:10080000148091F803C0BCF1480F07D100F1080C27
:100810004FF0010808FA0CF8C2F81080401C0828B4
:10082000CED35460BDE8F081F0B50A460023002421
:100830000021002500F00046B6F1004F02D11D4E08
:10084000F16901E01B4E7168C0F3034583B200F407
:100850004016B6F5401F08D121F07061154E76683C
:1008600026F07066134F7E6012E000F48016B6F535
:10087000801F06D1032606FA05F4A14341F07061FA
:1008800006E0460D360103FA06F6B14341F0706109
:1008900022B1460D360103FA06F6314300F0004658
:1008A000B6F1004F02D1034EF16101E0014E7160DB
:1008B000F0BD0000000001400246002093680B409C
:1008C0000BB1012000E000207047416170470161D9
:1008D0007047000030B500F0C3FF0446254605F020
:1008E00001000B4908702546C5F34000094908700E
:1008F00000BFC5F380000849087000BFC5F3C00001
:100900000649087000BFC5F300100549087030BDE6
:100910003400002035000020360000203700002081
:100920003800002030B500F09BFF04462546C5F393
:1009300000200B4908702546C5F34020094908707E
:1009400000BFC5F380200849087000BFC5F3C02070
:100950000649087000BFC5F300300549087030BD76
:10096000390000203A0000203B0000203C0000201D
:100970003D00002008B50121042000F0D1FE4FF415
:100980000070ADF8000003208DF8020028208DF8DB
:10099000030069460448FFF7BCFE4FF400710248AB
:1009A000FFF793FF08BD00000008014010B50024C8
:1009B0003DE004EB44001F4901EB80008068A0B3D8
:1009C00004EB440011F8200001282ED104EB440070
:1009D00001EB80004088401C04EB4401154A02EB07
:1009E0008101488004EB4400114601EB80004088FF
:1009F00004EB440102EB81018988884215DB002069
:100A000004EB440102F8210004EB4400114601EB21
:100A10008000408804EB440102EB8101488004EB34
:100A2000440102EB810188688047601CC4B2022C3B
:100A3000BFDB10BD7800002000BFFEE710B54FF40B
:100A400000410848FFF743FF10210748FFF73FFF29
:100A500008210548FFF73BFF20210348FFF737FF38
:100A600010BD000000080140000C014010B5044614
:100A7000412C26D10821084600F089FB3D21112098
:100A800000F016FE8621172000F012FE7F2126209E
:100A900000F00EFE1E212D2000F00AFE00212C2069
:100AA00000F006FE8D212A2000F002FE3E212B20C0
:100AB00000F0FEFD4FF47A7000F077FB00F0C6FB0B
:100AC00001E0012010BD0020FCE700BFFEE70000B0
:100AD00008B501210C2000F023FE0121084600F09A
:100AE0001FFE01211448FFF79FFE4FF47E70ADF802
:100AF000000003208DF8020010208DF803006946E5
:100B00000E48FFF706FE4FF47E710C48FFF7DFFE3C
:100B10004FF40040ADF8000003208DF802001020D3
:100B20008DF8030069460648FFF7F3FD4FF40041D6
:100B30000348FFF7CCFE08BD00023000000C014066
:100B4000000801402DE9F04104460D4616461F46B7
:100B50004FF00008A9E08CB14FF400415548FFF771
:100B6000B6FE10215448FFF7B2FE08215248FFF7A5
:100B7000ACFE20215048FFF7A8FE01E0FFF75EFF22
:100B800095B140214C48FFF7A2FE4FF480714A48CE
:100B9000FFF79DFE80214848FFF797FE4FF4007154
:100BA0004548FFF792FE01E000F044FE384600F0B1
:100BB000B5FF84B14FF400413E48FFF786FE102197
:100BC0003D48FFF784FE08213B48FFF780FE2021C7
:100BD0003948FFF77AFE8DB140213748FFF775FE9F
:100BE0004FF480713448FFF772FE80213248FFF7DE
:100BF0006EFE4FF400713048FFF767FE384600F094
:100C00008DFF84B14FF400412A48FFF75EFE1021AA
:100C10002948FFF75AFE08212748FFF758FE2021F0
:100C20002548FFF754FE8DB140212348FFF74DFEC4
:100C30004FF480712048FFF748FE80211E48FFF7DF
:100C400046FE4FF400711C48FFF741FE384600F0A5
:100C500065FF84B14FF400411648FFF738FE1021BC
:100C60001548FFF732FE08211348FFF72EFE20211A
:100C70001148FFF72CFE8DB140210F48FFF727FEEA
:100C80004FF480710C48FFF720FE80210A48FFF7DF
:100C90001CFE4FF400710848FFF719FE384600F0BB
:100CA0003DFF08F1010000F0FF08B0457FF753AFAA
:100CB000BDE8F08100080140000C01402DE9F04141
:100CC00004460D4616461F464FF00008A5E08CB1BD
:100CD0004FF400415348FFF7FAFD10215248FFF747
:100CE000F6FD08215048FFF7F0FD20214E48FFF7A0
:100CF000ECFD01E0FFF7A2FE95B140214A48FFF765
:100D0000E6FD4FF480714848FFF7DFFD802146483B
:100D1000FFF7DBFD4FF400714348FFF7D8FD01E01A
:100D200000F088FD384600F0F9FE84B14FF4004130
:100D30003C48FFF7CAFD10213B48FFF7C8FD0821DA
:100D40003948FFF7C4FD20213748FFF7BEFD8DB1BC
:100D500040213548FFF7B9FD4FF480713248FFF765
:100D6000B4FD80213048FFF7B2FD4FF400712E48EA
:100D7000FFF7ADFD384600F0D1FE84B14FF40041DD
:100D80002848FFF7A2FD10212748FFF79EFD082104
:100D90002548FFF79CFD20212348FFF798FD6DB102
:100DA0004FF480712048FFF792FD80211E48FFF725
:100DB0008EFD4FF400711C48FFF787FD384600F0A8
:100DC000ADFE84B14FF400411648FFF780FD1021BD
:100DD0001548FFF77AFD08211348FFF776FD20211B
:100DE0001148FFF774FD8DB140210F48FFF76FFDEB
:100DF0004FF480710C48FFF76AFD80210A48FFF725
:100E000064FD4FF400710848FFF75FFD384600F0BD
:100E100085FE08F1010000F0FF08B0457FF757AFED
:100E2000BDE8F08100080140000C01402DE9F041CF
:100E300004460D4616461F464FF00008A9E08CB147
:100E40004FF400415548FFF742FD10215448FFF789
:100E50003CFD08215248FFF738FD20215048FFF79C
:100E600036FD01E0FFF7EAFD95B140214C48FFF760
:100E70002EFD4FF480714A48FFF729FD8021484834
:100E8000FFF723FD4FF400714548FFF71EFD01E019
:100E900000F0D0FC384600F041FE84B14FF4004130
:100EA0003E48FFF712FD10213D48FFF70EFD0821D7
:100EB0003B48FFF70CFD20213948FFF708FD8DB1B5
:100EC00040213748FFF701FD4FF480713448FFF7A8
:100ED000FEFC80213248FFF7FAFC4FF400713048E5
:100EE000FFF7F3FC384600F019FE84B14FF40041DF
:100EF0002A48FFF7EAFC10212948FFF7E8FC0821FF
:100F00002748FFF7E4FC20212548FFF7DEFC8DB1E0
:100F100040212348FFF7D9FC4FF480712048FFF7A8
:100F2000D4FC80211E48FFF7D2FC4FF400711C480E
:100F3000FFF7CDFC384600F0F1FD84B14FF40041DD
:100F40001648FFF7C4FC10211548FFF7C0FC082124
:100F50001348FFF7BAFC20211148FFF7B6FC8DB10A
:100F600040210F48FFF7B3FC4FF480710C48FFF7A6
:100F7000ACFC80210A48FFF7A8FC4FF40071084838
:100F8000FFF7A5FC384600F0C9FD08F1010000F0AC
:100F9000FF08B0457FF753AFBDE8F081000801407E
:100FA000000C01407047000070B5002100230F22A3
:100FB000C47804B3154C246804F4E064C4F5E06418
:100FC000210AC1F10403CA40447804FA03F1847889
:100FD0001440214309010E4C0678A155047804F011
:100FE0001F050124AC4005786D11AD0005F1E02529
:100FF000C5F8004109E0047804F01F050124AC4065
:10100000044D0678761145F8264070BD0CED00E0E1
:1010100000E400E080E100E002490143024A11607F
:10102000704700000000FA050CED00E00249096875
:1010300009B90149086070477000002000202CE0C9
:1010400000EB4001164A52F8211021B300EB400199
:1010500002EB81010989491C00EB4002104B03EBB4
:101060008202118100EB40011A4602EB81010989DD
:1010700000EB400203EB8202D28891420BDB00219D
:1010800000EB400203EB82021181012100EB4002E0
:1010900003EB82021171411CC8B20528D0DB7047F6
:1010A000A80300201BE0002415E004EB44000C49D9
:1010B00001EB8000007901280BD1002004EB4401F2
:1010C000074A02EB8101087104EB440152F8210048
:1010D0008047601CC4B2052CE7DB02F0BBF8E2E7F6
:1010E000A8030020002016E0002100EB40020B4B7B
:1010F00043F8221000EB400203EB8202117100EB77
:10110000400203EB8202D18000EB400203EB82023B
:101110001181411CC8B20528E6DB7047A8030020F6
:1011200070472DE9F0410746884615460421052001
:1011300000F02DF80021012000F0BAFA80210A20E9
:1011400000F0A8FA002405E0395D092000F0B0FAAB
:10115000601CC4B24445F7DB0321012000F0A8FA6B
:10116000FF2400BF052000F04FFA0646601EC4B2FF
:101170001CB106F004000028F4D0222000F044FA4C
:101180002870212000F040FA6870BDE8F08170B549
:1011900005460C460026284600F036FA064626EAA2
:1011A0000401284600F084FA70BD002103E000BF6E
:1011B00000BF00BF491C8142F9D3704708B5012127
:1011C0000C2000F0ADFAB020ADF8000003208DF83F
:1011D000020010208DF8030069460F48FFF799FAC6
:1011E0000120ADF8000003208DF8020010208DF8DA
:1011F000030069460948FFF78CFA4020ADF800006B
:1012000003208DF8020004208DF80300694602488F
:10121000FFF77FFA08BD000000080140000C014004
:1012200010B5FFF7CBFF00F077F900F009F80220C6
:1012300000F074FC00F00AF84120FFF717FC10BD25
:1012400000B503211420FFF7A2FF00BD10B5142044
:1012500000F0DAF9044604F0030018B90321142061
:1012600000F018FA10BDF0B587B005460027082138
:101270000846FFF78CFF00210D2000F019FA8021AD
:101280000E20FFF784FF93208DF8040020208DF8B6
:10129000050006A801AB022201A900900C2000F075
:1012A00045F8064686B9002407E001A8005D2855E8
:1012B00001A8005D4740601CC4B2042CF5DB01A806
:1012C000005DB84200D0022680210E2000F0E2F935
:1012D000304607B0F0BD2DE9F04187B004460D4619
:1012E00016461F468DF804408DF805503068CDF83D
:1012F0000600B088ADF80A003868039006A801AB74
:101300000C2201A900900E2000F010F88046B8F1E0
:10131000000F05D1082000F077F900F0080008B9A7
:101320004FF00208404607B0BDE8F0812DE9FE4FBE
:101330000646884691469A46DDF830B00220029073
:101340000020019000900C2E06D00E2E09D1122004
:1013500001901020009005E077200190302000904F
:1013600000E000BF00BF019840F08001022000F0C3
:101370009FF980210420FFF70AFF0021012000F0DF
:1013800097F980210A2000F085F9002506E018F879
:101390000510092000F08CF9681C85B24D45F6DB7C
:1013A0003146012000F084F90C2E03D180210D205C
:1013B00000F070F94FF4FA6500BF042000F024F942
:1013C0000446681E85B235B104F0010018B90098D2
:1013D00020400028F1D080210D20FFF7D8FE002DFD
:1013E00038D0062000F010F900F01B0078BB002078
:1013F00002900198204000F0010008B10120029005
:101400000C2E27D10A2000F0FFF804460C2000F033
:10141000FBF800F007072FB1601E07EBC0008BF848
:10142000000003E0E006000E8BF8000004B9012480
:10143000122C00DD1224002506E0092000F0E4F85B
:101440000AF80500681C85B2A542F6DB02E0FFE75A
:101450000220029080210C2000F01CF900210120C4
:1014600000F026F90298BDE8FE8FF0B587B005467A
:101470000E4630208DF804008DF805500DF106025F
:10148000022101A8FFF74DFE06A801AB042201A925
:1014900000900C20FFF74AFF07466FB99DF818002F
:1014A000902809D1002404E001A8005D3055601C9B
:1014B000C4B2102CF8DB00E00227384607B0F0BDBC
:1014C00070B587B005460C4608210846FFF75FFE59
:1014D00007210D2000F0ECF80321142000F0DAF8C9
:1014E0008DF8045006A801AB012201A900900C2040
:1014F000FFF71CFF064656B99DF81800102806D1C4
:101500009DF8040020709DF80500607000E0022640
:10151000304607B070BD000000B501201B490860CF
:101520000A20FFF742FE00201949C1F880010A2075
:10153000FFF73BFE0120154908600A20FFF735FE42
:101540000F21012000F0B4F80F21012000F0B0F8C5
:101550000A20FFF72AFE3D21112000F0A9F81E21E4
:101560002D2000F0A5F800212C2000F0A1F88D21FD
:101570002A2000F09DF83E212B2000F099F8402110
:10158000152000F095F8002000BD00008081214268
:101590000080214270B587B0054693208DF8040085
:1015A00070208DF8050000208DF80A0000240BE063
:1015B000295D01AAA01C11549DF80A00295D48402C
:1015C0008DF80A00601CC4B2042CF1DB0DF10B0293
:1015D000072101A8FFF7A5FD08210846FFF7D7FD61
:1015E00006A801AB092201A900900C20FFF79EFE7E
:1015F00006462EB99DF81800182801D1002600E0F3
:101600000226304607B070BD70B5044600260020A3
:10161000094908607E2000EA440040F08005284621
:1016200000F00EF8002000F00BF8064601200349F8
:10163000C1F89001304670BD900121420000214266
:1016400010B50146002000221DE000230F4C23604E
:1016500001F0800323B101230C4C0834236003E024
:1016600000230A4C083423604B06190E0123074C53
:1016700023604306180E064BD3F818310BB140F027
:101680000100531CDAB2082ADFDB10BD94012142AD
:101690000000214270B505460C4600262846FFF79B
:1016A000B3FF064646EA0401284600F001F870BD83
:1016B00070B504460D460020074908607E2000EA08
:1016C00044063046FFF7BCFF2846FFF7B9FF01206C
:1016D0000249C1F8900170BD9001214200002142F1
:1016E00029B1064AD2690243044BDA6104E0034A95
:1016F000D2698243014BDA6170470000001002405A
:1017000029B1064A12690243044B1A6104E0034AF4
:1017100012698243014B1A617047000000100240B9
:1017200029B1064A92690243044B9A6104E0034AD4
:1017300092698243014B9A61704700000010024099
:1017400029B1064AD2680243044BDA6004E0034A36
:10175000D2688243014BDA607047000000100240FB
:1017600030B500210022002400232D4D6D6805F0C6
:101770000C0121B1042905D0082923D105E0294D08
:10178000056022E0274D05601FE0254D6D6805F4DA
:101790007012234D6D6805F48034022505EB9242EA
:1017A0001CB9214D554305600BE01D4D6D6805F4D6
:1017B00000351DB11C4D5543056002E0194D5543E0
:1017C000056002E0174D056000BF00BF144D6D6855
:1017D00005F0F0010909154D6B5C0568DD404560B9
:1017E0000F4D6D6805F4E061090A104D6B5C4568AA
:1017F000DD4085600A4D6D6805F46051C90A0B4DE6
:101800006B5C4568DD40C560054D6D6805F4404181
:10181000890B074D6B5CC568B5FBF3F5056130BD01
:101820000010024000127A0000093D005A0000201A
:101830006A00002010B540210848FFF748F84FF42F
:1018400080710648FFF743F880210448FFF73FF80E
:101850004FF400710148FFF73AF810BD000C014049
:101860000022154B1A60154BC3F8B42100BF0122AA
:10187000124BC3F8B4211A46D2F830210AB140F015
:101880000100002114E000220B4B1A6000BF00BFD2
:1018900001220A4BC3F8B8214FF6FF7202EA40005A
:1018A000054A883A12680AB140F001004A1CD1B2D8
:1018B0000F29E8DB70470000B881214200802142F7
:1018C0007047000008B501210820FFF729FF4FF4F9
:1018D000C040ADF8000003208DF8020010208DF804
:1018E000030069460B48FEF714FF4FF48041094896
:1018F000FEF7EDFF4FF48050ADF8000003208DF8A7
:10190000020004208DF8030069460248FEF701FF3B
:1019100008BD0000000C01402DE9F84F05460C46BB
:1019200016461F46DDE90A9A1948006820B1694643
:101930000020174A126890474FF000081CE099F801
:101940000000216808702068401C2060F1192068A0
:10195000884200D1266020682968884206D128681C
:10196000401CF1192860884200D12E6008F1010066
:101970001FFA80F809F10109D045E0DB044800684E
:1019800020B169460120024A12689047BDE8F88FED
:101990007000002010B5034608681C68A04204D9F6
:1019A00008881C88001B80B210BD08681C68A04213
:1019B00005D2088810441C88001B80B2F4E7002080
:1019C000F2E700002DE9F84304460E4615461F468F
:1019D000DDF820804FF000091348006820B1694607
:1019E0000020114A12689047002088F800003068F3
:1019F000216888420CD02068007888F800004FF0F9
:101A000001092068401CE9192060884200D1256046
:101A10000548006820B169460120034A12689047D2
:101A20004846BDE8F88300007000002002600A60AC
:101A3000704710B500F002F810BD00000CB5002092
:101A4000019000903348006840F4803031490860CC
:101A500000BF3048006800F4003000900198401C3E
:101A60000190009818B90198B0F5A06FF1D12948FC
:101A7000006800F4003010B10120009001E0002067
:101A800000900098012843D12348006840F01000DE
:101A9000214908600846006820F0030008600846F5
:101AA000006840F0020008601A4840681949486020
:101AB0000846406848600846406840F480604860D6
:101AC0000846406820F47C1048600846406840F4AE
:101AD000E81048600846006840F08070086000BF69
:101AE0000C48006800F000700028F9D009484068F0
:101AF00020F00300074948600846406840F00200B3
:101B0000486000BF0348406800F00C000828F9D185
:101B10000CBD000000100240002002400349086094
:101B200000BF024909680029FBD17047140000205A
:101B300010B50548006820B103480068401E0249FE
:101B40000860FFF77BFA10BD1400002010B51348A1
:101B5000006840F0010011490860084640681049DB
:101B600008400E494860084600680E4908400B4985
:101B700008600846006820F4802008600846406835
:101B800020F4FE0048604FF41F008860FFF751FF0B
:101B90004FF000600449086010BD000000100240D2
:101BA0000000FFF8FFFFF6FE08ED00E010B5012190
:101BB000094800F021F938B10848006820B1074809
:101BC0000068401E05490860FEF7F0FE012102484A
:101BD00000F00EF810BD00000004004018000020C6
:101BE00010B50121014800F003F810BD00080040C5
:101BF000CA430282704721B1028842F0010202808A
:101C000004E002884FF6FE731A400280704700001D
:101C100010B504466848844208D10121C014FFF77A
:101C20008FFD0021E014FFF78BFDC4E0B4F1804F7D
:101C300008D101210846FFF763FD00210120FFF7CD
:101C40005FFDB8E05D48844208D101210220FFF722
:101C500057FD00210220FFF753FDACE058488442B5
:101C600008D101210420FFF74BFD00210420FFF7DC
:101C700047FDA0E05348844208D101210820FFF726
:101C80003FFD00210820FFF73BFD94E04E488442D1
:101C900008D101211020FFF733FD00211020FFF7AC
:101CA0002FFD88E04948844208D101212020FFF718
:101CB00027FD00212020FFF723FD7CE044488442DB
:101CC00008D101214014FFF73BFD00216014FFF70C
:101CD00037FD70E03F48844209D10121C804FFF775
:101CE0002FFD00214FF40020FFF72AFD63E03A4862
:101CF000844209D101210805FFF722FD00214FF49C
:101D00008010FFF71DFD56E03448844209D10121BF
:101D10004805FFF715FD00214FF40010FFF710FDF7
:101D200049E02F48844208D101214020FFF7E8FC18
:101D300000214020FFF7E4FC3DE02A48844208D11E
:101D400001218020FFF7DCFC00218020FFF7D8FC78
:101D500031E02548844208D101218015FFF7D0FCED
:101D60000021A015FFF7CCFC25E02048844209D1D2
:101D700001210804FFF7E4FC00214FF48030FFF755
:101D8000DFFC18E01A48844209D101214804FFF71A
:101D9000D7FC00214FF40030FFF7D2FC0BE01548D0
:101DA000844208D101218804FFF7CAFC00214FF4C6
:101DB0008020FFF7C5FC10BD002C0140000400404E
:101DC00000080040000C00400010004000140040DB
:101DD00000340140004C01400050014000540140DB
:101DE00000180040001C004000200040004001405E
:101DF000004401400048014030B502460020002365
:101E00000024158A05EA0103958905EA010413B146
:101E10000CB1012000E0002030BD1AB183890B43D2
:101E2000838102E083898B4383817047002202888B
:101E30001D4B98420ED01D4B98420BD0B0F1804FF5
:101E400008D01B4B984205D01A4B984202D01A4B2F
:101E5000984204D14FF68F731A404B881A43174BA0
:101E6000984207D0164B984204D04FF6FF431A40D1
:101E7000CB881A4302808B8883850B8803850A4BA5
:101E800098420BD0094B984208D00E4B984205D08F
:101E90000D4B984202D00D4B984201D10B7A03862C
:101EA0000123838270470000002C01400034014070
:101EB0000004004000080040000C004000100040FA
:101EC000001400400040014000440140004801402F
:101ED000704700000EB540F225511D4800F066F82D
:101EE000A0B11B4800F01EF9C0B20290012002A967
:101EF00040F20113174ACDE90010111F081FFFF728
:101F00000BFD40F22551124800F028F840F22661FE
:101F10000F4800F04BF8C8B140F226610C4800F0C1
:101F20001DF840F201120C49081FFFF733FD68B19C
:101F300002A840F20113084A121D111F0090081F49
:101F4000FFF740FD9DF8080001F010FB0EBD0000FA
:101F50000044004098000020A001002010B500229D
:101F6000002340F66A14A14200D100BF0A120124E6
:101F70009440A3B2DC43048010BD21B1828942F4B5
:101F80000052828104E082894DF6FF731A408281FB
:101F9000704702460020B1F5007F00D100BF1388D2
:101FA0000B400BB1012000E00020704770B50246E5
:101FB000002400230025002040F66A16B14200D11B
:101FC00000BFC1F3421501F01F03012606FA03F317
:101FD000012D02D19689334006E0022D02D1168AE6
:101FE000334001E0968A33400C12012606FA04F4CD
:101FF0001688344013B10CB1012000E0002070BD00
:10200000F0B50346002400260025002040F66A179C
:10201000B94200D100BF1846C1F3421401F01F06B7
:10202000012707FA06F5012C01D10C3004E0022C3F
:1020300001D1103000E014301AB107682F43076057
:1020400002E00768AF430760F0BD00002DE9F047EC
:1020500086B005460E460024A24600BFA1460027D2
:10206000B08900B100BF2F462C8A4CF6FF700440A7
:10207000F08804432C82AC894EF6F3100440B088FB
:1020800031890843718908430443AC81AC8A4FF617
:10209000FF400440B0890443AC8201A8FFF760FB15
:1020A0001F48874202D1DDF810A001E0DDF80CA046
:1020B000A88900F4004040B10AEBCA0000EB0A1006
:1020C00031684900B0FBF1F807E00AEBCA0000EB09
:1020D0000A1031688900B0FBF1F86420B8FBF0F019
:1020E00004012009642101FB1089A88900F4004043
:1020F00040B1322000EBC900B0FBF1F000F0070066
:10210000044308E0322000EB09106421B0FBF1F039
:1021100000F00F0004432C8106B0BDE8F0870000FA
:102120000038014001468888C0F308007047C1F3B9
:1021300008028280704700BFFEE700000FB4054B25
:1021400010B503A9044A029800F0CAF810BC5DF863
:1021500014FB0000112A00087400002002E008C8E7
:10216000121F08C1002AFAD170477047002001E011
:1021700001C1121F002AFBD1704700002DE9FF5F4B
:10218000DDE90220010DDDF838B0024318D044F635
:102190001050A1F2FF3141430D140F98012820D0B7
:1021A000A5EB0B00401C5FEA000A4FF00004474E0D
:1021B000DFF81C91A046504616D5CAF1000728E06A
:1021C0000F98012443A2012808D0002100980F9BFA
:1021D000C0E90021C0E90243BDE8FF9F6FEA0B019F
:1021E000F4E7CBF10000DEE7074612E0F80707D07E
:1021F0002246334640464946FDF794FF80468946CD
:102200002246334610461946FDF78CFF04460E461B
:102210007F10002FEAD1DDE90201BAF1000F42463A
:102220004B4602DAFDF77EFF01E0FEF76EF9044649
:102230000E460022284BFEF7EFF903D84FF0FF308F
:10224000014607E00022254B20463146FEF7B6F84E
:10225000FEF7CAF9102409E0002C0ADB0A22002349
:10226000FEF70EF8019B30321A55641E50EA010247
:10227000F2D1641C019AC4F1110314440F9A012A8B
:1022800003D0012208430DD10AE0084304D0002006
:102290004FF0110B0F9080E7A3EB0B056D1E0DE0C7
:1022A0005B4504DD4FF0000205F1010504E003DAAF
:1022B0004FF00002A5F10105002AECD000980F991B
:1022C000C0E90231C0E9004586E700000000244073
:1022D0000000F03F300000000000F0430000E03F4D
:1022E0002DE9FF4F95B09B468946064600250FE233
:1022F000252877D100242746F84A0121059400E0DB
:10230000044316F8013F203B01FA03F01042F7D1D5
:1023100030782A2811D06FF02F033078A0F13002E6
:10232000092A16D8059A44F0020402EB820203EB54
:1023300042021044761C0590EFE759F8042B0592F1
:10234000002A03DA504244F40054059044F0020499
:10235000761C30782E2816D116F8010F44F00404AC
:102360002A280DD06FF02F023078A0F13003092B0E
:1023700009D807EB870302EB4303C718761CF3E782
:1023800059F8047B761C30786C280FD006DC4C287A
:1023900017D068280DD06A2814D104E0742810D012
:1023A0007A280FD10DE044F400140AE044F48014BC
:1023B00001E044F440147278824202D104F58014A2
:1023C000761C761C307866280BD013DC582877D022
:1023D00009DC002875D04528F6D04628F4D04728D7
:1023E0001AD19DE118E0632835D0642879D065289A
:1023F00012D195E1702873D008DC6728F1D06928E4
:102400006FD06E280DD06F2806D1B5E073282CD080
:10241000752875D0782874D05A46179990476D1C46
:1024200075E1C4F30250022809D003280DD0D9F871
:10243000001004280DD00D6009F1040967E1D9F8F6
:102440000010EA17C1E90052F6E7D9F800100D8034
:10245000F2E70D70F0E719F8041B8DF8001000206A
:102460008DF80100EA46012003E059F804AB4FF073
:10247000FF3061074FF0000102D40DE008F10101C7
:102480008846B9420FDA8045F8DB1AF808100029AF
:10249000F4D108E008F1010188468142FADB1AF81C
:1024A00008100029F6D105985B46A0EB08072146E5
:1024B0003846179A00F094FA284400EB080507E024
:1024C0004DE029E10DE01AF8010B5A4617999047A3
:1024D000B8F10108F7D25B4621463846179A13E156
:1024E00042E00A220092C4F302524FF0000A022A8C
:1024F00008D059F804CB032A4FEAEC710AD00DE05A
:1025000029E02AE009F1070121F00702F2E802C1FF
:10251000914609E00FFA8CFC4FEAEC71042A03D1D2
:102520004FFA8CFC4FEAEC71002907DA0A460021C9
:10253000DCF1000C61EB02012D2202E0220504D542
:102540002B228DF80420012203E0E20701D0202293
:10255000F7E7904659E00A2102E010220DE0102131
:102560004FF0000A00910BE010224FF0000A44F0F7
:1025700004040827009203E008224FF0000A0092AA
:10258000C4F30252022A05D059F804CB0021032AD1
:1025900008D009E009F1070121F00702F2E802C1C1
:1025A000914605E01FFA8CFC042A01D10CF0FF0CC7
:1025B0004FF00008220728D5702806D0009B83F032
:1025C000100353EA0A0305D00EE040228DF80420E0
:1025D000012208E05CEA010206D030228DF80420D6
:1025E0008DF8050002229046009B83F0080353EA11
:1025F0000A030AD15CEA010201D1620705D5302243
:102600008DF804204FF001087F1E582804D034A014
:1026100003900EA802900DE036A0F9E753466046FD
:10262000009AFDF72DFE84460398825C0298401EB6
:10263000029002705CEA0100F0D1029806A9081A23
:1026400000F1200A600702D524F4803400E001275D
:10265000574502DDA7EB0A0000E0002000EB0A016D
:10266000009005984144401A0590E00306D45B466B
:102670002146179A059800F0B3F90544002706E0B3
:1026800001A85A46C05D179990476D1C7F1C4745AD
:10269000F6DBE0030CD55B462146179A059800F05F
:1026A0009FF9054404E030205A46179990476D1C65
:1026B0000099481E00900029F5DC08E00298029974
:1026C0005A460078491C0291179990476D1CBAF13F
:1026D0000001AAF1010AF1DC65E10000092801000E
:1026E0003031323334353637383961626364656688
:1026F000000000003031323334353637383941424A
:10270000434445460000000000F058F90544761C9B
:10271000307800287FF4ECAD19B02846BDE8F08F82
:10272000620700D4062709F1070222F0070CFCE833
:102730000223E14603F000485FEA080C02D00FF2E2
:10274000702C0DE05FEA045C02D50FF2682C07E004
:102750005FEAC47C02D00FF2602C01E0AFF2700C93
:102760004FF0FF3823F00043CDF850C065280CD05F
:1027700006DC452809D046281DD047283DD13DE03C
:10278000662818D067287ED138E00021112F01DBA0
:10279000112000E0781CCDE9000106A90EA8FFF782
:1027A000EDFCDDE90F010E9A03910021009207F183
:1027B000010A04914DE04FF000400097CDE901106F
:1027C00006A90EA8FFF7DAFCDDE90F0203920E9BC3
:1027D00011990022DDF80CA00093049211B9791C24
:1027E00000EB010AB7EB0A0004D4C0F1FF3007F197
:1027F000010A0490AAEB0700019044E0012F00DADF
:1028000001270021112F01DD112000E03846CDE91C
:10281000000106A90EA8FFF7B1FCDDE90F010E9A31
:102820000391002104910092BA4621070CD4039928
:10283000514500DA8A46BAF1010F05DD009AAAF186
:102840000101515C302908D0B84202DA10F1040FBE
:1028500006DA0121CDE9011015E0AAF10101E9E74D
:10286000002805DC049901440491AAEB000102E070
:10287000411C514500DD8A460499401A401C0190D4
:102880004FF000400290200704D40198504501DB2E
:10289000CDF8048000208DF84F0002980DF14F070D
:1028A000B0F1004F25D02B200E9002984FF0020877
:1028B00000280CDA404202902D200E9007E00A21F9
:1028C0000298FDF7C7FC3031029007F8011DB8F1FE
:1028D0000001A8F10108F2DC02980028EFD1791E6E
:1028E0000E980870307800F0200040F0450007F89E
:1028F000020D12A8C01B00F107081498007800B15F
:10290000012000EB0A01019801EBE07105984144B8
:10291000401A401E0590E00306D45B462146179AF4
:10292000059800F05DF805441498007818B15A46EF
:10293000179990476D1CE00324D55B462146179AF2
:10294000059800F04DF805441CE00498002807DBCA
:10295000DDE90301884203DD0098405C179901E03E
:10296000179930205A469047049805F10105401CFC
:1029700004900198401E019004D12E205A461799C8
:1029800090476D1CBAF10001AAF1010ADDDC05E0F7
:1029900017F8010B5A46179990476D1CB8F10001C2
:1029A000A8F10108F4DC5B462146179A0598ABE6CE
:1029B0002D0000002B000000200000002DE9F04158
:1029C000044600251E461746880404D405E039460F
:1029D0002020B0476D1C641EF9D52846BDE8F08163
:1029E0002DE9F041044600251E469046C80301D556
:1029F000302700E02027880404D505E0414638460A
:102A0000B0476D1C641EF9D52846BDE8F081000072
:102A100070B504460D46E1B20548FFF788FB00BFDC
:102A200080210348FFF7B5FA0028F9D0204670BD91
:102A3000004400402DE9F041FDF74CFFFC480078D0
:102A400030B1012874D0022873D0032872D189E2F2
:102A5000F848007800284AD1F7480078012846D184
:102A6000F6480078012842D10220F54908700CE0B0
:102A7000FDF730FF0423012211461046FEF71EF930
:102A8000F0480078401CEF490870EA4800780028B8
:102A9000EED010E0FDF71EFFE8480078EA49087024
:102AA0000423012211461046FEF708F9E548007894
:102AB000401CE4490870E14800780028EAD004236B
:102AC000462201210846FEF73DF80BE0FDF702FF24
:102AD000DE480078DE49087004230A2201210846F6
:102AE000FEF730F8D94800780028EFD075E1D148DA
:102AF0000078002849D1D0480078002845D1CF4837
:102B0000007880BB0220CE4908700CE0FDF7E2FEA1
:102B10000423012211461046FEF7D0F8C948007878
:102B2000401CC8490870C34800780028EED00FE068
:102B30005FE1DCE115E2FDF7CDFE04230122114641
:102B40001046FEF7BBF8BF480078401CBD4908702E
:102B5000BA4800780028EED0042346220121084616
:102B6000FDF7F0FF0CE010E0FDF7B4FEB748007889
:102B7000B749087004230A2201210846FDF7E2FF45
:102B8000B24800780028EFD027E1AA480078A0BB1F
:102B9000A9480078012842D1A848007868BB0220E3
:102BA000A74908700CE0FDF795FE042301221146A9
:102BB0001046FEF783F8A3480078401CA14908702E
:102BC0009C4800780028EED00CE0FDF783FE04233B
:102BD000012211461046FEF771F89A480078401C11
:102BE00098490870954800780028EED004234622C2
:102BF00001210846FDF7A6FF0CE010E0FDF76AFE94
:102C0000924800789249087004230A22012108465C
:102C1000FDF798FF8D4800780028EFD0DDE085486B
:102C20000078012847D184480078012843D183489F
:102C30000078E8BB0220824908700CE0FDF74AFEEC
:102C40000423012211461046FEF738F87D4800782B
:102C5000401C7C490870774800780028EED00CE0D2
:102C6000FDF738FE0423012211461046FEF726F830
:102C700074480078401C7349087070480078002838
:102C8000EED00423462201210846FDF75BFF0BE04E
:102C9000FDF720FE6D4800786D49087004230A2274
:102CA00001210846FDF74EFF68480078002800E043
:102CB00001E0EDD091E05F48007898BB5E48007875
:102CC00080BB5E48007801283ED15D4908700CE069
:102CD000FDF700FE0423012211461046FEF7A6F878
:102CE00058480078401C574908705248007800281E
:102CF000EED00CE0FDF7EEFD042301221146104654
:102D0000FEF794F84F480078401C4E4908704A4836
:102D100000780028EED00423462201210846FDF762
:102D200011FF0CE010E0FDF7D5FD4A4800784A4954
:102D3000087004230A2201210846FDF703FF4548D5
:102D400000780028EFD048E03A480078012844D1C4
:102D50003948007880BB3948007801283DD138498E
:102D600008700CE0FDF7B6FD042301221146104661
:102D7000FEF75CF833480078401C324908702D4853
:102D800000780028EED00CE0FDF7A4FD042301221A
:102D900011461046FEF74AF82A480078401C294997
:102DA0000870254800780028EED00423462201212F
:102DB0000846FDF7C7FE0CE00FE0FDF78BFD254848
:102DC00000782549087004230A2201210846FDF7EE
:102DD000B9FE204800780028EFD00423012200210A
:102DE0000846FDF7AFFEFDF775FD0120104908709C
:102DF00022E113480078012845D112480078FDF7F8
:102E000003FA0546154A164BFDF78CF90746FDF700
:102E100008FAC4B20423224601210846FDF74EFFFA
:102E20000423502201210846FDF78CFE26E0000015
:102E30004E00002034000020350000203600002025
:102E4000500000204F0000203100002038000020FA
:102E5000330000203700002032000020CDCCCCCC45
:102E6000CCCCFC3FFDF736FD7548007875490870FD
:102E700004230A2201210846FDF764FE7048007809
:102E80000028EFD02DE070480078022829D16F4843
:102E90000078FDF7B9F905466D4A6E4BFDF742F92A
:102EA0000746FDF7BEF9C4B20423224601210846B5
:102EB000FDF7BCFF0423502201210846FDF742FE26
:102EC0000BE0FDF707FD64480078644908700423AF
:102ED0000A2201210846FDF735FE5F4800780028E8
:102EE000EFD0FDF7F7FC02205D490870A4E05648DA
:102EF0000078012813D155480078FDF785F905467B
:102F0000534A544BFDF70EF90746FDF78AF9C4B250
:102F10000423224601210846FDF7D0FE16E04A4868
:102F20000078022812D149480078FDF76DF905466E
:102F3000474A484BFDF7F6F80746FDF772F9C4B269
:102F40000423224601210846FDF770FF04230522D1
:102F500001210846FDF7F6FDFDF7BCFC03204049C2
:102F6000087069E00423012211461046FDF7EAFDCE
:102F7000FDF7D8FC3B480078A0B93B480078012811
:102F800010D104231E220021FDF7DCFD00202E4974
:102F900008702E4908700120344908700020344917
:102FA000087048E030480078A8B92E480078012819
:102FB00011D104231E2201210020FDF7C3FD0020B2
:102FC0002149087021490870012028490870002013
:102FD000274908702FE027480078A0B926480078D4
:102FE000012810D104231E220021FDF7ABFD002093
:102FF000154908701549087001201C490870002007
:103000001B49087017E01C480078A0B919480078DF
:10301000012810D104231E2201210020FDF792FD7A
:103020000020094908700949087001200F490870FB
:1030300000200F49087000BF00BFBDE8F08100000C
:103040003700002032000020500000204F000020F8
:10305000CDCCCCCCCCCCFC3F3800002033000020C1
:103060004E0000203B0000203C00002040000020DB
:1030700041000020390000203A00002010B500F087
:1030800019F80248FDF7D2FF10BD0000913000088A
:1030900070B504460D4624B900F07CFA287072B66B
:1030A00006E0012C04D1287808B162B600E072B6BF
:1030B00070BD000030B5144800684FF47A72B0FB60
:1030C000F2F1B1F1807F00D31DE021F07F40401E7E
:1030D0004FF0E022506150170F22002807DA130743
:1030E0001D0E0A4B00F00F04241F1D5503E01307AB
:1030F0001C0E074B1C5400BF00204FF0E0229061D3
:103100000720106100BF30BD0000002018ED00E076
:1031100000E400E010B504230A2200210846FDF770
:1031200011FD0CA0FFF70AF84FF47A60FEF7F6FCE9
:1031300000F0EEF800200B49087001200A490870E1
:1031400040F6B830FEF7EAFC40F6B830FEF7E6FC91
:1031500010BD0000C4FABAC320C7EBB3F6CABE491B
:1031600044BFA8004C0000204000002010B50446D9
:103170002CB14FF480710548FDF7A7FB04E04FF434
:1031800080710248FDF7A3FB10BD0000000801405C
:1031900010B504462CB14FF400410548FDF797FBEC
:1031A00004E04FF400410248FDF78FFB10BD000022
:1031B000000C014008B501210C20FEF7B1FA4FF4D4
:1031C0008070ADF8000003208DF8020010208DF80B
:1031D000030069460D48FDF79CFA4FF480710B48D7
:1031E000FDF773FB4FF40040ADF8000003208DF8AD
:1031F000020010208DF8030069460548FDF789FAA2
:103200004FF400410248FDF760FB08BD0008014093
:10321000000C014070B505460C461DB12046FFF775
:10322000B7FF02E02046FFF7A1FF70BD10B5FFF722
:10323000C1FF00210846FFF7EDFF00210120FFF745
:10324000E9FF10BD10B5FDF743FCFEF73BFBFDF7B2
:1032500091FB10BD10B52548007801280FD12448F6
:10326000007860B900F08CF92249087008460078AF
:1032700028B101201E49087000201C4908701C4814
:10328000007800BBFDF726FB1B48007828B11B48DF
:10329000007810B11A48007890B91A480068401CAC
:1032A000184908600846006868B10120164908708E
:1032B00000200E490870134908601449087002E0A4
:1032C00000201049086009480078012801D100F069
:1032D0005FF80D480078012801D1FFF7ABFB0448E7
:1032E0000078012801D1FFF715FF10BD4000002034
:1032F0004C0000204D00002034000020350000204C
:103300003600002048000020410000204E00002030
:1033100010B52BE000F0CCFA1748007848B1012135
:103320000020FFF777FF01210846FFF773FF002415
:1033300007E000210846FFF76DFF00210120FFF79D
:1033400069FF0A20FEF7EAFB0B48007800B9641C0D
:1033500040F2DC50844209D301200749087007A0DD
:10336000FEF7ECFE40F6B830FEF7D8FB07480078D1
:103370000028CFD110BD000051000020C9EDB7DDFD
:10338000CAB6B1F0CAA7B0DC000000004C000020B3
:1033900010B5FDF7C7FA6148007801283CD16048B4
:1033A0000078012838D15F480078012834D15E4880
:1033B0000078012830D15D48007801282CD15C4884
:1033C0000068401C5A490860042301221146104637
:1033D000FDF7B8FB56480068282820D304231422A0
:1033E00000210846FDF76AFC4FF47A70FEF796FB61
:1033F0000523412201210846FDF760FC4FF47A7055
:10340000FEF78CFB0423142200210846FDF756FC2E
:1034100000204749086002E00020454908603F4815
:103420000078012815D13E480078012811D13D4887
:10343000007801280DD13C480078012809D13B488B
:10344000007830B904230A2201210846FDF77AFBEF
:1034500062E03248007878B93148007860B9314884
:10346000007848B93048007830B904230A22002196
:103470000846FDF767FB4FE02A480078E8B12A4884
:103480000078D0B12548007850B925480078012847
:1034900006D104230A2201210020FDF753FB3BE063
:1034A0001F48007800BB1D480078012834D1042350
:1034B0000A220021FDF746FB2EE01A480078A0B949
:1034C00019480078012810D11448007830B9032336
:1034D0000A2201210020FDF735FB1DE002230A220C
:1034E00001210020FDF72EFB16E00F48007898B967
:1034F0000C48007801280FD10948007830B903231F
:103500000A2200210120FDF71DFB05E002230A220B
:1035100000210120FDF716FB10BD0000390000203E
:103520003A0000203B0000203C0000203D0000202D
:103530004400002010B500F099F8084A111F081F38
:10354000FEF774FA064A111F081FFEF76FFA0020F3
:10355000044908700449086010BD0000980000206C
:10356000A40100201C0000202000002010B504460B
:1035700021460248FEF7DBFD10BD0000004400407C
:1035800010B54FF400710248FDF796F910BD000028
:103590000008014000BFEFF3108008B90120704718
:1035A0000020FCE71FB501210220FEF799F81B4817
:1035B000FEF72EFBC820ADF808001948006819492D
:1035C000B0FBF1F0401E80B2ADF804000020ADF871
:1035D0000A00ADF806008DF80C0001A90F48FEF7AF
:1035E00025FC1D208DF8000001208DF80100002031
:1035F0008DF8020001208DF803006846FDF7D4FC29
:1036000001210648FEF7F4FA012211460348FEF7AD
:1036100004FC01210148FEF7EEFA1FBD0004004042
:103620000000002040420F0010B5FFF7BBFF002450
:1036300016E0002004EB44010B4A02F8210004EBE1
:10364000440102EB8101488004EB440102EB81015B
:10365000888004EB440102EB81018860601CC4B2E5
:10366000022CE6DB10BD00007800002000B587B01A
:1036700001210420FEF754F801214804FEF730F838
:103680000420ADF8180018208DF81B0003208DF8D9
:103690001A0006A92148FDF73CF80820ADF81800EB
:1036A00004208DF81B0003208DF81A0006A91B4882
:1036B000FDF72FF84FF4165002900020ADF80C00E3
:1036C000ADF80E00ADF81000ADF814000C20ADF808
:1036D000120002A91248FEF7B9FC012240F225515E
:1036E0000F48FEF78DFC012240F226610C48FEF7E0
:1036F00087FC01210A48FEF740FC26208DF80400D3
:1037000002208DF8050000208DF8060001208DF8BC
:10371000070001A8FDF748FC07B000BD0008014004
:103720000044004010B54FF44070FDF775FCFFF702
:10373000A5FCFDF7D7FCFFF777FFFFF7FBFEFFF7D0
:1037400075FDFDF76DFD06A0FEF7F8FCFFF77AFDAD
:103750004FF47A60FEF7E2F9FDF7A4FC002010BDFB
:10376000B4AEBFDAD5FDB3A3210D0A0070B505468E
:103770000E46002404E0295D04A0FEF7DFFC641C73
:10378000B442F8DB03A0FEF7D9FC70BD30782558B1
:10379000200000000D0A000038B5012469462620EB
:1037A000FDF78EFE0446002C59D102243048FDF767
:1037B0005AFD04466420FEF7B1F92EA0FEF7BEFCC8
:1037C00040F6C410FEF7AAF902216846FFF7CEFFC3
:1037D00041F28830FEF7A2F928A0FEF7AFFC40F6D0
:1037E000B830FEF79BF904212148FFF7BFFF42F2F2
:1037F0001070FEF793F91E48007822490978884234
:1038000023D11B4840781F49497888421DD1184868
:1038100080781C498978884217D11548C0781949A1
:10382000C978884211D100210846FFF7F3FC002136
:103830000120FFF7EFFC00201349087013A0FEF7EA
:103840007DFC00201549087005E001200E49087034
:1038500013A0FEF773FC40F6B830FEF75FF924B909
:1038600002240348FDF796FE0446204638BD0000BA
:1038700052000020BFA8C0E0D0CD3A00BFA8BAC512
:103880003A0000005600002051000020C9EDB7DDCD
:10389000CAB6B1F0B3C9B9A6000000004C000020C0
:1038A000C9EDB7DDCAB6B1F0CAA7B0DC00000000B0
:1038B00010B586B00EA103C9CDE90401FFF76CFF76
:1038C000044634B90C4B04AA03216020FDF703FD24
:1038D000044624B969460220FDF7C7FD04461CB919
:1038E00010216846FFF742FFE0B206B010BD0000AD
:1038F000FFFFFFFFFFFF0000520000201C390008FF
:1039000000000020780000005C21000894390008C5
:1039100078000020700700006C21000800A24A0413
:10392000000000000000000001020304060708096F
:103930000000000000000000000000000000000087
:103940000000000000000000000000000101010173
:103950000000000000000000000000000100000066
:103960000000000000000000000000000000000057
:103970000000AED66F150000000001020304010232
:1039800003040607080902040608000000000000FE
:043990000000000033
:04000005080000ED02
:00000001FF
